#880 -DATA FROM 9279210000                                                                                                                                                                                                                                      
880   00000000000                      GPMITCHELL GROCRYKVAT FOOD STORES                                                                                                                                                                                        
880   G010020000021021019782313                                                                                                                                                                                                                                 
880   G620050000003210210                                                                                                                                                                                                                                       
880   G2300800000033 210210                   210219               2519417                                                                                                                                                                                      
880   N1 01000000BTMITCHELL GROCERY                                                                                                                                                                                                                             
880   N1 01000000REKVAT FOOD STORES                                                                                                                                                                                                                             
880   N3 01200000PO BOX 1158                                                                                                                                                                                                                                    
880   N4 01300000ABINGDON                      VA00002                                                                                                                                                                                                          
880   G720140000030 02                                                       2-00000988                                                                                                                                                                         
880   G170160000000000000001CA2000000511080921940002                                                                                80274                                                                                                                       
880   G6901700000WHITE RAIN MENS 3N1 SHMPOO/CNDTNR/BDYWSH                                                                                                                                                                                                       
880   G170160000000000000001CA2000000511080921940002                                                                                80421                                                                                                                       
880   G6901700000WHITE RAIN MENS 3N1 SHMPOO/CNDTNR/BDYWSH                                                                                                                                                                                                       
880   G170160000000000000001CA2000000511080921940002                                                                                80818                                                                                                                       
880   G6901700000WHITE RAIN MENS 3N1 SHMPOO/CNDTNR/BDYWSH                                                                                                                                                                                                       
880   G170160000000000000001CA2000000547003746112200                                                                                80458                                                                                                                       
880   G6901700000CEDAR SHAVINGS                                                                                                                                                                                                                                 
880   G170160000000000000001CA2000000797074938490304                                                                                80201                                                                                                                       
880   G6901700000$ PIE PAN #90304-15                                                                                                                                                                                                                            
880   G170160000000000000001CA2000000797074938490304                                                                                80343                                                                                                                       
880   G6901700000$ PIE PAN #90304-15                                                                                                                                                                                                                            
880   G170160000000000000001CA2000000797074938490304                                                                                80706                                                                                                                       
880   G6901700000$ PIE PAN #90304-15                                                                                                                                                                                                                            
880   G170160000000000000001CA2000000845004815591092                                                                                80403                                                                                                                       
880   G6901700000PH AEROSOL CLEANERS BATHROOM CLEANERS #9                                                                                                                                                                                                       
880   G170160000000000000001CA2000000847005209222018                                                                                80117                                                                                                                       
880   G6901700000ECO-FOIL COOK-N-CARRY 1LB LOAF PN W/ LID                                                                                                                                                                                                       
880   G170160000000000000001CA2000000847005209222018                                                                                80134                                                                                                                       
880   G6901700000ECO-FOIL COOK-N-CARRY 1LB LOAF PN W/ LID                                                                                                                                                                                                       
880   G170160000000000000001CA2000000847005209222018                                                                                80211                                                                                                                       
880   G6901700000ECO-FOIL COOK-N-CARRY 1LB LOAF PN W/ LID                                                                                                                                                                                                       
880   G170160000000000000001CA2000000936068639051240                                                                                80117                                                                                                                       
880   G6901700000VALUE STAR FOAM SNACK PLATE 6 INCH                                                                                                                                                                                                             
880   G170160000000000000001CA2000000979003680039960                                                                                80095                                                                                                                       
880   G6901700000PAWS BASIC PUPPY PADS 21X21                                                                                                                                                                                                                    
880   G170160000000000000001CA2000000979003680039960                                                                                80117                                                                                                                       
880   G6901700000PAWS BASIC PUPPY PADS 21X21                                                                                                                                                                                                                    
880   G170160000000000000001CA2000000979003680039960                                                                                80135                                                                                                                       
880   G6901700000PAWS BASIC PUPPY PADS 21X21                                                                                                                                                                                                                    
880   G170160000000000000001CA2000000979003680039960                                                                                80211                                                                                                                       
880   G6901700000PAWS BASIC PUPPY PADS 21X21                                                                                                                                                                                                                    
880   G170160000000000000001CA2000000979003680039960                                                                                80818                                                                                                                       
880   G6901700000PAWS BASIC PUPPY PADS 21X21                                                                                                                                                                                                                    
880   G170160000000000000001CA2000001046004815591046                                                                                80458                                                                                                                       
880   G6901700000FABRIC REFRESHERS FRESH SCENT #91046-12                                                                                                                                                                                                        
880   G170160000000000000001CA2000001077004815590631                                                                                80461                                                                                                                       
880   G6901700000PH TRIGGER CLENR AL PRPSE CLNR W/BLEACH                                                                                                                                                                                                        
880   G170160000000000000001CA2000001077004815590631                                                                                80618                                                                                                                       
880   G6901700000PH TRIGGER CLENR AL PRPSE CLNR W/BLEACH                                                                                                                                                                                                        
880   G170160000000000000001CA2000001247007247798040                                                                                80105                                                                                                                       
880   G6901700000PIC GLUE MOUSE TRAPS 4PK                                                                                                                                                                                                                       
880   G170160000000000000001CA2000001247007247798040                                                                                80821                                                                                                                       
880   G6901700000PIC GLUE MOUSE TRAPS 4PK                                                                                                                                                                                                                       
880   G170160000000000000001CA2000001269074938490399                                                                                80135                                                                                                                       
880   G6901700000$ CNC ROASTER BAKER W/ LID #90399.010                                                                                                                                                                                                          
880   G170160000000000000001CA2000001269074938490399                                                                                80201                                                                                                                       
880   G6901700000$ CNC ROASTER BAKER W/ LID #90399.010                                                                                                                                                                                                          
880   G170160000000000000001CA2000001269074938490399                                                                                80211                                                                                                                       
880   G6901700000$ CNC ROASTER BAKER W/ LID #90399.010                                                                                                                                                                                                          
880   G170160000000000000001CA2000001269074938490399                                                                                80268                                                                                                                       
880   G6901700000$ CNC ROASTER BAKER W/ LID #90399.010                                                                                                                                                                                                          
880   G170160000000000000001CA2000001269074938490399                                                                                80274                                                                                                                       
880   G6901700000$ CNC ROASTER BAKER W/ LID #90399.010                                                                                                                                                                                                          
880   G170160000000000000001CA2000001269074938490399                                                                                80464                                                                                                                       
880   G6901700000$ CNC ROASTER BAKER W/ LID #90399.010                                                                                                                                                                                                          
880   G170160000000000000001CA2000001269074938490399                                                                                80709                                                                                                                       
880   G6901700000$ CNC ROASTER BAKER W/ LID #90399.010                                                                                                                                                                                                          
880   G170160000000000000001CA1000000132005209220398                                                                                80201                                                                                                                       
880   G6901700000ECO FOIL COOK N CARY 2LB LOAF PN W/LID                                                                                                                                                                                                         
880   G170160000000000000001CA1000000132005209220398                                                                                80618                                                                                                                       
880   G6901700000ECO FOIL COOK N CARY 2LB LOAF PN W/LID                                                                                                                                                                                                         
880   G170160000000000000001CA1000000132005209220398                                                                                80823                                                                                                                       
880   G6901700000ECO FOIL COOK N CARY 2LB LOAF PN W/LID                                                                                                                                                                                                         
880   G170160000000000000001CA1000000132005209220398                                                                                80823                                                                                                                       
880   G6901700000ECO FOIL COOK N CARY 2LB LOAF PN W/LID                                                                                                                                                                                                         
880   G170160000000000000001CA2000001357005209224456                                                                                80116                                                                                                                       
880   G6901700000MUFFIN PANS W/ LIDS &AMP; BAKE CUPS 4PK                                                                                                                                                                                                        
880   G170160000000000000001CA2000001357005209224456                                                                                80131                                                                                                                       
880   G6901700000MUFFIN PANS W/ LIDS &AMP; BAKE CUPS 4PK                                                                                                                                                                                                        
880   G170160000000000000001CA2000001357005209224456                                                                                80706                                                                                                                       
880   G6901700000MUFFIN PANS W/ LIDS &AMP; BAKE CUPS 4PK                                                                                                                                                                                                        
880   G170160000000000000001CA2000001357005209224456                                                                                80823                                                                                                                       
880   G6901700000MUFFIN PANS W/ LIDS &AMP; BAKE CUPS 4PK                                                                                                                                                                                                        
880   G170160000000000000001CA2000001361005209244002                                                                                80117                                                                                                                       
880   G6901700000ECO FOIL STUFFING PAN 440027                                                                                                                                                                                                                   
880   G170160000000000000001CA2000001361005209244002                                                                                80134                                                                                                                       
880   G6901700000ECO FOIL STUFFING PAN 440027                                                                                                                                                                                                                   
880   G170160000000000000001CA2000001361005209244002                                                                                80458                                                                                                                       
880   G6901700000ECO FOIL STUFFING PAN 440027                                                                                                                                                                                                                   
880   G170160000000000000001CA2000001361005209244002                                                                                80618                                                                                                                       
880   G6901700000ECO FOIL STUFFING PAN 440027                                                                                                                                                                                                                   
880   G170160000000000000001CA2000001361005209244002                                                                                80706                                                                                                                       
880   G6901700000ECO FOIL STUFFING PAN 440027                                                                                                                                                                                                                   
880   G170160000000000000001CA2000001361005209244002                                                                                80822                                                                                                                       
880   G6901700000ECO FOIL STUFFING PAN 440027                                                                                                                                                                                                                   
880   G170160000000000000001CA2000001392005209200367                                                                                80095                                                                                                                       
880   G6901700000ECO GIANT LASAGNA PAN                                                                                                                                                                                                                          
880   G170160000000000000001CA2000001392005209200367                                                                                80105                                                                                                                       
880   G6901700000ECO GIANT LASAGNA PAN                                                                                                                                                                                                                          
880   G170160000000000000001CA2000001392005209200367                                                                                80119                                                                                                                       
880   G6901700000ECO GIANT LASAGNA PAN                                                                                                                                                                                                                          
880   G170160000000000000001CA2000001392005209200367                                                                                80134                                                                                                                       
880   G6901700000ECO GIANT LASAGNA PAN                                                                                                                                                                                                                          
880   G170160000000000000001CA2000001392005209200367                                                                                80201                                                                                                                       
880   G6901700000ECO GIANT LASAGNA PAN                                                                                                                                                                                                                          
880   G170160000000000000001CA2000001392005209200367                                                                                80618                                                                                                                       
880   G6901700000ECO GIANT LASAGNA PAN                                                                                                                                                                                                                          
880   G170160000000000000001CA2000001392005209200367                                                                                80817                                                                                                                       
880   G6901700000ECO GIANT LASAGNA PAN                                                                                                                                                                                                                          
880   G170160000000000000001CA2000001396074938490394                                                                                80201                                                                                                                       
880   G6901700000$ CNC UTILITY PAN W/ LID #90394.010                                                                                                                                                                                                            
880   G170160000000000000001CA2000001396074938490394                                                                                80209                                                                                                                       
880   G6901700000$ CNC UTILITY PAN W/ LID #90394.010                                                                                                                                                                                                            
880   G170160000000000000001CA2000001396074938490394                                                                                80459                                                                                                                       
880   G6901700000$ CNC UTILITY PAN W/ LID #90394.010                                                                                                                                                                                                            
880   G170160000000000000001CA2000001396074938490394                                                                                80709                                                                                                                       
880   G6901700000$ CNC UTILITY PAN W/ LID #90394.010                                                                                                                                                                                                            
880   G170160000000000000001CA2000001437071525690002                                                                                80117                                                                                                                       
880   G6901700000READY IN CASE FRST AID ALCHOL ISOPROPYL7                                                                                                                                                                                                       
880   G170160000000000000001CA2000001437071525690002                                                                                80201                                                                                                                       
880   G6901700000READY IN CASE FRST AID ALCHOL ISOPROPYL7                                                                                                                                                                                                       
880   G170160000000000000001CA2000001437071525690002                                                                                80614                                                                                                                       
880   G6901700000READY IN CASE FRST AID ALCHOL ISOPROPYL7                                                                                                                                                                                                       
880   G170160000000000000001CA2000001437071525690002                                                                                80818                                                                                                                       
880   G6901700000READY IN CASE FRST AID ALCHOL ISOPROPYL7                                                                                                                                                                                                       
880   G170160000000000000001CA2000001437071525690002                                                                                80821                                                                                                                       
880   G6901700000READY IN CASE FRST AID ALCHOL ISOPROPYL7                                                                                                                                                                                                       
880   G170160000000000000001CA2000001463005209220397                                                                                80458                                                                                                                       
880   G6901700000ECO CNC OBLONG PAN W/LID 2PK 20397-11                                                                                                                                                                                                          
880   G170160000000000000001CA2000001463005209220397                                                                                80459                                                                                                                       
880   G6901700000ECO CNC OBLONG PAN W/LID 2PK 20397-11                                                                                                                                                                                                          
880   G170160000000000000001CA2000001463005209220397                                                                                80614                                                                                                                       
880   G6901700000ECO CNC OBLONG PAN W/LID 2PK 20397-11                                                                                                                                                                                                          
880   G170160000000000000001CA2000001463005209220397                                                                                80817                                                                                                                       
880   G6901700000ECO CNC OBLONG PAN W/LID 2PK 20397-11                                                                                                                                                                                                          
880   G170160000000000000001CA2000001506001111126285                                                                                80821                                                                                                                       
880   G6901700000AXE APOLLO SHOWER GEL                                                                                                                                                                                                                          
880   G170160000000000000001CA2000001509074938492014                                                                                80095                                                                                                                       
880   G6901700000$ DEEP ROASTER #92014-15                                                                                                                                                                                                                       
880   G170160000000000000001CA2000001509074938492014                                                                                80131                                                                                                                       
880   G6901700000$ DEEP ROASTER #92014-15                                                                                                                                                                                                                       
880   G170160000000000000001CA2000001509074938492014                                                                                80464                                                                                                                       
880   G6901700000$ DEEP ROASTER #92014-15                                                                                                                                                                                                                       
880   G170160000000000000001CA2000001509074938492014                                                                                80706                                                                                                                       
880   G6901700000$ DEEP ROASTER #92014-15                                                                                                                                                                                                                       
880   G170160000000000000001CA2000001509074938492014                                                                                80709                                                                                                                       
880   G6901700000$ DEEP ROASTER #92014-15                                                                                                                                                                                                                       
880   G170160000000000000001CA2000001518001122513360                                                                                80268                                                                                                                       
880   G6901700000SIMPLY DONE SPONGE ALL PURPOSE LARGE                                                                                                                                                                                                           
880   G170160000000000000001CA2000001518001122513360                                                                                80369                                                                                                                       
880   G6901700000SIMPLY DONE SPONGE ALL PURPOSE LARGE                                                                                                                                                                                                           
880   G170160000000000000001CA2000001518001122513360                                                                                80822                                                                                                                       
880   G6901700000SIMPLY DONE SPONGE ALL PURPOSE LARGE                                                                                                                                                                                                           
880   G170160000000000000001CA2000001555068639002425                                                                                80117                                                                                                                       
880   G6901700000VALUE STAR FOAM PLATES 8 7/8 INCH                                                                                                                                                                                                              
880   G170160000000000000001CA2000001589068639041230                                                                                80117                                                                                                                       
880   G6901700000VALUE STAR FOAM BOWL 12 OZ                                                                                                                                                                                                                     
880   G170160000000000000001CA2000001597004159463986                                                                                80099                                                                                                                       
880   G6901700000DART FOAM CUP 16OZ                                                                                                                                                                                                                             
880   G170160000000000000001CA2000001597004159463986                                                                                80117                                                                                                                       
880   G6901700000DART FOAM CUP 16OZ                                                                                                                                                                                                                             
880   G170160000000000000001CA2000001597004159463986                                                                                80816                                                                                                                       
880   G6901700000DART FOAM CUP 16OZ                                                                                                                                                                                                                             
880   G170160000000000000001CA2000001628007575566425                                                                                80274                                                                                                                       
880   G6901700000POSTER BOARD WHITE  # 4808341                                                                                                                                                                                                                  
880   G170160000000000000001CA2000001628007575566425                                                                                80822                                                                                                                       
880   G6901700000POSTER BOARD WHITE  # 4808341                                                                                                                                                                                                                  
880   G170160000000000000001CA2000001647005209220392                                                                                80211                                                                                                                       
880   G6901700000ECO-CNC LASAGNA PAN W/LID 2PK 20392-10                                                                                                                                                                                                         
880   G170160000000000000001CA2000001647005209220392                                                                                80821                                                                                                                       
880   G6901700000ECO-CNC LASAGNA PAN W/LID 2PK 20392-10                                                                                                                                                                                                         
880   G170160000000000000001CA2000001647005209220392                                                                                80823                                                                                                                       
880   G6901700000ECO-CNC LASAGNA PAN W/LID 2PK 20392-10                                                                                                                                                                                                         
880   G170160000000000000001CA2000001658074938409105                                                                                80131                                                                                                                       
880   G6901700000$ GIANT OVAL RACK ROASTER #9105-15                                                                                                                                                                                                             
880   G170160000000000000001CA2000001658074938409105                                                                                80268                                                                                                                       
880   G6901700000$ GIANT OVAL RACK ROASTER #9105-15                                                                                                                                                                                                             
880   G170160000000000000001CA2000001658074938409105                                                                                80360                                                                                                                       
880   G6901700000$ GIANT OVAL RACK ROASTER #9105-15                                                                                                                                                                                                             
880   G170160000000000000001CA2000001658074938409105                                                                                80614                                                                                                                       
880   G6901700000$ GIANT OVAL RACK ROASTER #9105-15                                                                                                                                                                                                             
880   G170160000000000000001CA2000001658074938409105                                                                                80817                                                                                                                       
880   G6901700000$ GIANT OVAL RACK ROASTER #9105-15                                                                                                                                                                                                             
880   G170160000000000000001CA1000000183005209202106                                                                                80343                                                                                                                       
880   G6901700000ECO ULTIMATES ULTRA ROASTER/BAKER                                                                                                                                                                                                              
880   G170160000000000000001CA2000001836005209220395                                                                                80117                                                                                                                       
880   G6901700000ECO CNC ROUND CAKE W/LID 3PK #20395-13                                                                                                                                                                                                         
880   G170160000000000000001CA2000001836005209220395                                                                                80268                                                                                                                       
880   G6901700000ECO CNC ROUND CAKE W/LID 3PK #20395-13                                                                                                                                                                                                         
880   G170160000000000000001CA2000001836005209220395                                                                                80369                                                                                                                       
880   G6901700000ECO CNC ROUND CAKE W/LID 3PK #20395-13                                                                                                                                                                                                         
880   G170160000000000000001CA2000001836005209220395                                                                                80614                                                                                                                       
880   G6901700000ECO CNC ROUND CAKE W/LID 3PK #20395-13                                                                                                                                                                                                         
880   G170160000000000000001CA2000001955063050942187                                                                                80117                                                                                                                       
880   G6901700000PD SINGLE CAN ASST                                                                                                                                                                                                                             
880   G170160000000000000001CA2000001965005209280367                                                                                80201                                                                                                                       
880   G6901700000SUPER KING GIANT LASAGNA PAN #80367 -10                                                                                                                                                                                                        
880   G170160000000000000001CA2000001977005209220394                                                                                80823                                                                                                                       
880   G6901700000COOK N CARRY UTILITY PAN W/ LID                                                                                                                                                                                                                
880   G170160000000000000001CA2000002005005209202107                                                                                80117                                                                                                                       
880   G6901700000ECO-FOIL ULTIMATES POULTRY PAN                                                                                                                                                                                                                 
880   G170160000000000000001CA2000002005005209202107                                                                                80119                                                                                                                       
880   G6901700000ECO-FOIL ULTIMATES POULTRY PAN                                                                                                                                                                                                                 
880   G170160000000000000001CA2000002005005209202107                                                                                80822                                                                                                                       
880   G6901700000ECO-FOIL ULTIMATES POULTRY PAN                                                                                                                                                                                                                 
880   G170160000000000000001CA2000002112005209220388                                                                                80817                                                                                                                       
880   G6901700000ECO COOK N CARRY GT ALL PURP PAN W/LID                                                                                                                                                                                                         
880   G170160000000000000001CA2000002116003680039961                                                                                80207                                                                                                                       
880   G6901700000PAWS BASIC PUPPY PADS 21X21                                                                                                                                                                                                                    
880   G170160000000000000001CA2000002116003680039961                                                                                80211                                                                                                                       
880   G6901700000PAWS BASIC PUPPY PADS 21X21                                                                                                                                                                                                                    
880   G170160000000000000001CA2000002116003680039961                                                                                80821                                                                                                                       
880   G6901700000PAWS BASIC PUPPY PADS 21X21                                                                                                                                                                                                                    
880   G170160000000000000001CA2000002116003680039961                                                                                80823                                                                                                                       
880   G6901700000PAWS BASIC PUPPY PADS 21X21                                                                                                                                                                                                                    
880   G170160000000000000001CA2000002192005209202028                                                                                80459                                                                                                                       
880   G6901700000ECO-FOIL SUPER OVAL KING ROASTER #2028-9                                                                                                                                                                                                       
880   G170160000000000000001CA2000002192005209202028                                                                                80618                                                                                                                       
880   G6901700000ECO-FOIL SUPER OVAL KING ROASTER #2028-9                                                                                                                                                                                                       
880   G170160000000000000001CA2000002192005209202028                                                                                80822                                                                                                                       
880   G6901700000ECO-FOIL SUPER OVAL KING ROASTER #2028-9                                                                                                                                                                                                       
880   G170160000000000000001CA2000002227007910075996                                                                                80821                                                                                                                       
880   G6901700000MILK BONE GNAW BONES STICK SMALL                                                                                                                                                                                                               
880   G170160000000000000001CA2000002258003270015682                                                                                80105                                                                                                                       
880   G6901700000HARTZ ONKIES TENDER TREATS 18 PK                                                                                                                                                                                                               
880   G170160000000000000001CA2000002282005209220387                                                                                80201                                                                                                                       
880   G6901700000ECO-FOIL ULTMTES COOK N CRRY PLTRY PN LD                                                                                                                                                                                                       
880   G170160000000000000001CA2000002335005209224308                                                                                80119                                                                                                                       
880   G6901700000HEAVY DUTY SMOOTHWALL CAKE PAN #24308-14                                                                                                                                                                                                       
880   G170160000000000000001CA2000002335005209224308                                                                                80211                                                                                                                       
880   G6901700000HEAVY DUTY SMOOTHWALL CAKE PAN #24308-14                                                                                                                                                                                                       
880   G170160000000000000001CA2000002345003270015704                                                                                80816                                                                                                                       
880   G6901700000HARTZ HOME PROTECTION QUILTED PLUS                                                                                                                                                                                                             
880   G170160000000000000001CA2000002363004940301504                                                                                80117                                                                                                                       
880   G690170000020X20X1 POLYESTER FILTERS                                                                                                                                                                                                                      
880   G170160000000000000001CA2000002363004940301504                                                                                80135                                                                                                                       
880   G690170000020X20X1 POLYESTER FILTERS                                                                                                                                                                                                                      
880   G170160000000000000001CA2000002363004940301504                                                                                80222                                                                                                                       
880   G690170000020X20X1 POLYESTER FILTERS                                                                                                                                                                                                                      
880   G170160000000000000001CA2000002363004940301504                                                                                80274                                                                                                                       
880   G690170000020X20X1 POLYESTER FILTERS                                                                                                                                                                                                                      
880   G170160000000000000001CA2000002388003270014838                                                                                80816                                                                                                                       
880   G6901700000HRTZ HOME PRTCTN DOG PADS OE LAVENDAR                                                                                                                                                                                                          
880   G170160000000000000001CA2000002388003270014838                                                                                80818                                                                                                                       
880   G6901700000HRTZ HOME PRTCTN DOG PADS OE LAVENDAR                                                                                                                                                                                                          
880   G170160000000000000001CA2000002413007466001009                                                                                80822                                                                                                                       
880   G6901700000TURTLE WZX 1 STEP WAX &AMP; DRY #T-9R                                                                                                                                                                                                          
880   G170160000000000000001CA2000002422005209224203                                                                                80823                                                                                                                       
880   G6901700000ICHEF WHITE CASSEROLE PANS &AMP; LIDS                                                                                                                                                                                                          
880   G170160000000000000001CA2000002422005209224203                                                                                80823                                                                                                                       
880   G6901700000ICHEF WHITE CASSEROLE PANS &AMP; LIDS                                                                                                                                                                                                          
880   G170160000000000000001CA2000002591005209272394                                                                                80117                                                                                                                       
880   G6901700000FUN COLORS 13X9 CAKE PANS W/BLUE LIDS PO                                                                                                                                                                                                       
880   G170160000000000000001CA2000002591005209272394                                                                                80343                                                                                                                       
880   G6901700000FUN COLORS 13X9 CAKE PANS W/BLUE LIDS PO                                                                                                                                                                                                       
880   G170160000000000000001CA2000002591005209272394                                                                                80614                                                                                                                       
880   G6901700000FUN COLORS 13X9 CAKE PANS W/BLUE LIDS PO                                                                                                                                                                                                       
880   G170160000000000000001CA2000002611003680039963                                                                                80117                                                                                                                       
880   G6901700000PAWS BASICS PUPPY TRAINING PADS                                                                                                                                                                                                                
880   G170160000000000000001CA2000002611003680039963                                                                                80464                                                                                                                       
880   G6901700000PAWS BASICS PUPPY TRAINING PADS                                                                                                                                                                                                                
880   G170160000000000000001CA2000002677005209200330                                                                                80614                                                                                                                       
880   G69017000005 STORAGE CONTAINERS W/FOLDED LIDS                                                                                                                                                                                                             
880   G170160000000000000001CA2000002677005209200330                                                                                80823                                                                                                                       
880   G69017000005 STORAGE CONTAINERS W/FOLDED LIDS                                                                                                                                                                                                             
880   G170160000000000000001CA2000002679005209224204                                                                                80135                                                                                                                       
880   G6901700000ICHEF WHITE 13X9 CAKE PAN W/ LID                                                                                                                                                                                                               
880   G170160000000000000001CA2000002679005209224204                                                                                80201                                                                                                                       
880   G6901700000ICHEF WHITE 13X9 CAKE PAN W/ LID                                                                                                                                                                                                               
880   G170160000000000000001CA2000002679005209224204                                                                                80823                                                                                                                       
880   G6901700000ICHEF WHITE 13X9 CAKE PAN W/ LID                                                                                                                                                                                                               
880   G170160000000000000001CA1000000275005209220339                                                                                80614                                                                                                                       
880   G6901700000HEALTHY RPASTER/BAKER PANS #20339010                                                                                                                                                                                                           
880   G170160000000000000001CA2000002759064159000007                                                                                80131                                                                                                                       
880   G6901700000TRUE BLUE FILTERS M-7 14X20 PART #214201                                                                                                                                                                                                       
880   G170160000000000000001CA2000002759064159000009                                                                                80131                                                                                                                       
880   G6901700000TRUE BLUE FILTERS M-7 16X20 PART #216201                                                                                                                                                                                                       
880   G170160000000000000001CA2000002759064159000009                                                                                80134                                                                                                                       
880   G6901700000TRUE BLUE FILTERS M-7 16X20 PART #216201                                                                                                                                                                                                       
880   G170160000000000000001CA2000002759064159000009                                                                                80458                                                                                                                       
880   G6901700000TRUE BLUE FILTERS M-7 16X20 PART #216201                                                                                                                                                                                                       
880   G170160000000000000001CA2000002759064159000010                                                                                80134                                                                                                                       
880   G6901700000TRUE BLUE FILTERS M-7 16X25 PART #216251                                                                                                                                                                                                       
880   G170160000000000000001CA2000002759064159000010                                                                                80208                                                                                                                       
880   G6901700000TRUE BLUE FILTERS M-7 16X25 PART #216251                                                                                                                                                                                                       
880   G170160000000000000001CA2000002759064159000010                                                                                80706                                                                                                                       
880   G6901700000TRUE BLUE FILTERS M-7 16X25 PART #216251                                                                                                                                                                                                       
880   G170160000000000000001CA2000002759064159000011                                                                                80134                                                                                                                       
880   G6901700000TRUE BLUE FILTERS M-7 20X20 PART #220201                                                                                                                                                                                                       
880   G170160000000000000001CA2000002759064159000011                                                                                80464                                                                                                                       
880   G6901700000TRUE BLUE FILTERS M-7 20X20 PART #220201                                                                                                                                                                                                       
880   G170160000000000000001CA2000002759064159000011                                                                                80821                                                                                                                       
880   G6901700000TRUE BLUE FILTERS M-7 20X20 PART #220201                                                                                                                                                                                                       
880   G170160000000000000001CA2000002759064159000011                                                                                80822                                                                                                                       
880   G6901700000TRUE BLUE FILTERS M-7 20X20 PART #220201                                                                                                                                                                                                       
880   G170160000000000000001CA2000002759064159000011                                                                                80823                                                                                                                       
880   G6901700000TRUE BLUE FILTERS M-7 20X20 PART #220201                                                                                                                                                                                                       
880   G170160000000000000001CA2000002775003680025419                                                                                80105                                                                                                                       
880   G6901700000PAWS HAPPY LIFE PUPPY TRAINING PAD OVRSZ                                                                                                                                                                                                       
880   G170160000000000000001CA2000002775003680025419                                                                                80821                                                                                                                       
880   G6901700000PAWS HAPPY LIFE PUPPY TRAINING PAD OVRSZ                                                                                                                                                                                                       
880   G170160000000000000001CA2000002775003680025419                                                                                80823                                                                                                                       
880   G6901700000PAWS HAPPY LIFE PUPPY TRAINING PAD OVRSZ                                                                                                                                                                                                       
880   G170160000000000000001CA2000002857003680025417                                                                                80818                                                                                                                       
880   G6901700000PAWS HAPPY LIFE PUPPY TRAINING PAD BASIC                                                                                                                                                                                                       
880   G170160000000000000001CA2000002857003680025417                                                                                80821                                                                                                                       
880   G6901700000PAWS HAPPY LIFE PUPPY TRAINING PAD BASIC                                                                                                                                                                                                       
880   G170160000000000000001CA2000002883064159000012                                                                                80117                                                                                                                       
880   G6901700000TRUE BLUE FILTERS M-7 20X25 PART #220251                                                                                                                                                                                                       
880   G170160000000000000001CA2000002883064159000012                                                                                80134                                                                                                                       
880   G6901700000TRUE BLUE FILTERS M-7 20X25 PART #220251                                                                                                                                                                                                       
880   G170160000000000000001CA2000002883064159000012                                                                                80201                                                                                                                       
880   G6901700000TRUE BLUE FILTERS M-7 20X25 PART #220251                                                                                                                                                                                                       
880   G170160000000000000001CA2000002883064159000012                                                                                80706                                                                                                                       
880   G6901700000TRUE BLUE FILTERS M-7 20X25 PART #220251                                                                                                                                                                                                       
880   G170160000000000000001CA2000002883064159000012                                                                                80821                                                                                                                       
880   G6901700000TRUE BLUE FILTERS M-7 20X25 PART #220251                                                                                                                                                                                                       
880   G170160000000000000001CA2000003044005209202027                                                                                80618                                                                                                                       
880   G6901700000EXTRA DEEP BBQ KING UTILTY PAN #2027-17                                                                                                                                                                                                        
880   G170160000000000000001CA2000003143064159000201                                                                                80117                                                                                                                       
880   G6901700000TRUE BLUE FILTERS M-7 20X30 PART #220301                                                                                                                                                                                                       
880   G170160000000000000001CA2000003143064159000201                                                                                80131                                                                                                                       
880   G6901700000TRUE BLUE FILTERS M-7 20X30 PART #220301                                                                                                                                                                                                       
880   G170160000000000000001CA2000003143064159000201                                                                                80134                                                                                                                       
880   G6901700000TRUE BLUE FILTERS M-7 20X30 PART #220301                                                                                                                                                                                                       
880   G170160000000000000001CA2000003143064159000201                                                                                80135                                                                                                                       
880   G6901700000TRUE BLUE FILTERS M-7 20X30 PART #220301                                                                                                                                                                                                       
880   G170160000000000000001CA2000003143064159000201                                                                                80458                                                                                                                       
880   G6901700000TRUE BLUE FILTERS M-7 20X30 PART #220301                                                                                                                                                                                                       
880   G170160000000000000001CA2000003143064159000201                                                                                80821                                                                                                                       
880   G6901700000TRUE BLUE FILTERS M-7 20X30 PART #220301                                                                                                                                                                                                       
880   G170160000000000000001CA1000000399005209222062                                                                                80614                                                                                                                       
880   G6901700000ECO FL C N C HALF SHEET CAKE PN 220629                                                                                                                                                                                                         
880   G170160000000000000001CA1000000485002385733342                                                                                80706                                                                                                                       
880   G690170000032OZ LAMP OIL                                                                                                                                                                                                                                  
880   G170160000000000000001CA2000004999071921814201                                                                                80135                                                                                                                       
880   G690170000014X20 PURAFILTER AIR FILTER PF1420CS4                                                                                                                                                                                                          
880   G170160000000000000001CA2000004999071921816201                                                                                80099                                                                                                                       
880   G690170000016X20 PURAFILTER AIR FILTER PF1620CS4                                                                                                                                                                                                          
880   G170160000000000000001CA2000004999071921816201                                                                                80208                                                                                                                       
880   G690170000016X20 PURAFILTER AIR FILTER PF1620CS4                                                                                                                                                                                                          
880   G170160000000000000001CA2000004999071921816201                                                                                80369                                                                                                                       
880   G690170000016X20 PURAFILTER AIR FILTER PF1620CS4                                                                                                                                                                                                          
880   G170160000000000000001CA2000004999071921816251                                                                                80134                                                                                                                       
880   G690170000016X25 PURAFILTER AIR FILTER PF1625CS4                                                                                                                                                                                                          
880   G170160000000000000001CA2000004999071921816251                                                                                80274                                                                                                                       
880   G690170000016X25 PURAFILTER AIR FILTER PF1625CS4                                                                                                                                                                                                          
880   G170160000000000000001CA2000004999071921820201                                                                                80099                                                                                                                       
880   G690170000020X20 PURAFILTER AIR FILTER PF2020CS4                                                                                                                                                                                                          
880   G170160000000000000001CA2000004999071921820201                                                                                80116                                                                                                                       
880   G690170000020X20 PURAFILTER AIR FILTER PF2020CS4                                                                                                                                                                                                          
880   G170160000000000000001CA2000004999071921820201                                                                                80274                                                                                                                       
880   G690170000020X20 PURAFILTER AIR FILTER PF2020CS4                                                                                                                                                                                                          
880   G170160000000000000001CA2000004999071921820201                                                                                80421                                                                                                                       
880   G690170000020X20 PURAFILTER AIR FILTER PF2020CS4                                                                                                                                                                                                          
880   G170160000000000000001CA2000004999071921820201                                                                                80458                                                                                                                       
880   G690170000020X20 PURAFILTER AIR FILTER PF2020CS4                                                                                                                                                                                                          
880   G170160000000000000001CA2000004999071921820201                                                                                80818                                                                                                                       
880   G690170000020X20 PURAFILTER AIR FILTER PF2020CS4                                                                                                                                                                                                          
880   G170160000000000000001CA2000004999071921820251                                                                                80095                                                                                                                       
880   G690170000020X25 PURAFILTER AIR FILTER PF2025CS4                                                                                                                                                                                                          
880   G170160000000000000001CA2000004999071921820251                                                                                80135                                                                                                                       
880   G690170000020X25 PURAFILTER AIR FILTER PF2025CS4                                                                                                                                                                                                          
880   G170160000000000000001CA2000004999071921820251                                                                                80369                                                                                                                       
880   G690170000020X25 PURAFILTER AIR FILTER PF2025CS4                                                                                                                                                                                                          
880   G170160000000000000001CA2000004999071921820251                                                                                80816                                                                                                                       
880   G690170000020X25 PURAFILTER AIR FILTER PF2025CS4                                                                                                                                                                                                          
880   G170160000000000000001CA2000005406088796161161                                                                                80117                                                                                                                       
880   G6901700000MEGA POKEMON POKEBALL FPM00                                                                                                                                                                                                                    
880   G170160000000000000001CA2000005413089366900102                                                                                80814                                                                                                                       
880   G6901700000AMERICAN BAG CO HT/CLD LR THERMAL BAG                                                                                                                                                                                                          
880   G170160000000000000001CA2000007164071921820301                                                                                80116                                                                                                                       
880   G690170000020X30 PURAFILTER AIR FILTER PF2030CS4                                                                                                                                                                                                          
880   G170160000000000000001CA2000007164071921820301                                                                                80131                                                                                                                       
880   G690170000020X30 PURAFILTER AIR FILTER PF2030CS4                                                                                                                                                                                                          
880   G170160000000000000001CA2000007164071921820301                                                                                80134                                                                                                                       
880   G690170000020X30 PURAFILTER AIR FILTER PF2030CS4                                                                                                                                                                                                          
880   G170160000000000000001CA2000007164071921820301                                                                                80369                                                                                                                       
880   G690170000020X30 PURAFILTER AIR FILTER PF2030CS4                                                                                                                                                                                                          
880   G170160000000000000002CA2000001269074938490399                                                                                80706                                                                                                                       
880   G6901700000$ CNC ROASTER BAKER W/ LID #90399.010                                                                                                                                                                                                          
880   G170160000000000000002CA1000000132005209220398                                                                                80614                                                                                                                       
880   G6901700000ECO FOIL COOK N CARY 2LB LOAF PN W/LID                                                                                                                                                                                                         
880   G170160000000000000002CA2000001357005209224456                                                                                80614                                                                                                                       
880   G6901700000MUFFIN PANS W/ LIDS &AMP; BAKE CUPS 4PK                                                                                                                                                                                                        
880   G170160000000000000002CA2000001361005209244002                                                                                80614                                                                                                                       
