#880 -DATA FROM 9256490000                                                                                                                                                                                                                                      
880   00000000000                      GPMITCHELL GROCRYTOPCO                                                                                                                                                                                                   
880   G01002000002008319901867239            20081935783                                                                                                                                                                                                        
880   G620050000011200831                                                                                                                                                                                                                                       
880   NTE00600000GEN                             PRICE EFFECTIVE WITH ORDER DATE                                                                                                                                                                                
880   NTE00600000GEN                        VENDOR :REYNOLDS PRESTO PRODUCTS INC                                                                                                                                                                                
880   G2700700000T                   VENDOR TO ROUTE                                                                                                                                                                                                            
880   G2300800000013       0400000022009160016200917 017200000-7655137507     20000382725               2% 16 DAYS NET 17                                                                                                                                       
880   G2500900000PP02FOB DESTINATION                                                                                                                                                                                                                            
880   N1 01000000RETOPCO ASSOCIATES LLC               9 0069359770001                                                                                                                                                                                           
880   N3 01200000P.O. BOX 96002                                                                                                                                                                                                                                 
880   N4 01300000CHICAGO                       IL606936002                                                                                                                                                                                                      
880   N1 01000000BTMITCHELL GROCERY CORPORATION       9 1314673500000                                                                                                                                                                                           
880   N3 01200000PO BOX 370                                                                                                                                                                                                                                     
880   N4 01300000ALBERTVILLE                   AL35950                                                                                                                                                                                                          
880   N1 01000000STMITCHELL GROCERY CORPORATION       9 1314673500000                                                                                                                                                                                           
880   N3 01200000611 RUBY AVENUE                                                                                                                                                                                                                                
880   N4 01300000ALBERTVILLE                   AL35950                                                                                                                                                                                                          
880   N1 01000000VNTOPCO                              9 0069359770001                                                                                                                                                                                           
880   G170160000000000000054CA2000001754001122513129UK10011225131292                                                   00000000054CA                                                                                                                            
880   G6901700000SANDWICH BAG FOLD AND CLOSE                                                                                                                                                                                                                    
880   G20019000000000024                                                                                                                                                                                                                                        
880   G170160000000000000042CA2000000921001122513207UK10011225132077                                                   00000000042CA                                                                                                                            
880   G6901700000PLASTIC STOR CNTNR SQUARE MEDIUM 32 OZ                                                                                                                                                                                                         
880   G20019000000000006                                                                                                                                                                                                                                        
880   G170160000000000000108CA2000001131001122513136UK10011225131360                                                   00000000108CA                                                                                                                            
880   G6901700000PLASTIC FOOD WRAP 12 IN X 100 FT                                                                                                                                                                                                               
880   G20019000000000012                                                                                                                                                                                                                                        
880   G170160000000000000045CA2000000921001122513209UK10011225132091                                                   00000000045CA                                                                                                                            
880   G6901700000PLASTIC STOR CNTNR ENTREE 25 OZ                                                                                                                                                                                                                
880   G20019000000000006                                                                                                                                                                                                                                        
880   G170160000000000000026CA2000000921001122513212UK10011225132121                                                   00000000026CA                                                                                                                            
880   G6901700000PLASTIC STOR CNTNR FAM SZ 128 OZ                                                                                                                                                                                                               
880   G20019000000000004                                                                                                                                                                                                                                        
880   G170160000000000000057CA2000001084001122517575UK10011225175753                                                   00000000057CA                                                                                                                            
880   G6901700000STORAGE BAG RECLOSABLE GALLON                                                                                                                                                                                                                  
880   G20019000000000012                                                                                                                                                                                                                                        
880   G310250000000000000332UN20000130888LB300230829CF                                                                                                                                                                                                          
880   G330260000020000382725                                                                                                                                                                                                                                    
#EOT                                                                                                                                                                                                                                                            
#880 -DATA FROM 9256490000                                                                                                                                                                                                                                      
880   00000000000                      GPMITCHELL GROCRYTOPCO                                                                                                                                                                                                   
880   G01002000002008319901867238            20081875156                                                                                                                                                                                                        
880   G620050000011200831                                                                                                                                                                                                                                       
880   NTE00600000GEN                             PRICE EFFECTIVE WITH ORDER DATE                                                                                                                                                                                
880   NTE00600000GEN                                        VENDOR :ROCKLINE INC                                                                                                                                                                                
880   G2700700000T                   VENDOR TO ROUTE                                                                                                                                                                                                            
880   G2300800000013       0400000022009160016200917 017200000-62892308108    20000314397               2% 16 DAYS NET 17                                                                                                                                       
880   G2500900000PP02FOB DESTINATION                                                                                                                                                                                                                            
880   N1 01000000RETOPCO ASSOCIATES LLC               9 0069359770001                                                                                                                                                                                           
880   N3 01200000P.O. BOX 96002                                                                                                                                                                                                                                 
880   N4 01300000CHICAGO                       IL606936002                                                                                                                                                                                                      
880   N1 01000000BTMITCHELL GROCERY CORPORATION       9 1314673500000                                                                                                                                                                                           
880   N3 01200000PO BOX 370                                                                                                                                                                                                                                     
880   N4 01300000ALBERTVILLE                   AL35950                                                                                                                                                                                                          
880   N1 01000000STMITCHELL GROCERY CORPORATION       9 1314673500000                                                                                                                                                                                           
880   N3 01200000611 RUBY AVENUE                                                                                                                                                                                                                                
880   N4 01300000ALBERTVILLE                   AL35950                                                                                                                                                                                                          
880   N1 01000000VNTOPCO                              9 0069359770001                                                                                                                                                                                           
880   G170160000000000000042CA2000001176001122513404UK10011225134040                                                   00000000042CA                                                                                                                            
880   G6901700000BAKING CUPS PAPER                                                                                                                                                                                                                              
880   G20019000000000024                                                                                                                                                                                                                                        
880   G170160000000000000081CA2000002496001122513408UK10011225134088                                                   00000000081CA                                                                                                                            
880   G6901700000COFFEE FILTER BASKET 8-12 CUP                                                                                                                                                                                                                  
880   G20019000000000024                                                                                                                                                                                                                                        
880   G170160000000000000016CA2000002844001122513409UK10011225134095                                                   00000000016CA                                                                                                                            
880   G6901700000COFFEE FILTER BASKET 8-12 CUP                                                                                                                                                                                                                  
880   G20019000000000012                                                                                                                                                                                                                                        
880   G170160000000000000015CA2000001155001122513411UK10011225134118                                                   00000000015CA                                                                                                                            
880   G6901700000COFFEE FILTER CONE #2 TRAY PACK                                                                                                                                                                                                                
880   G20019000000000015                                                                                                                                                                                                                                        
880   G310250000000000000154UN20000124325LB200015525CF                                                                                                                                                                                                          
880   G330260000020000314397                                                                                                                                                                                                                                    
#EOT                                                                                                                                                                                                                                                            
#880 -DATA FROM 7748881340                                                                                                                                                                                                                                      
880   00000000000                      GPMITCHELL GROCRYBLOUNT FINE FOODS CORP                                                                                                                                                                                  
880   G0100200000200828CI20004522            20081585145                                                                                                                                                                                                        
880   G620050000011200828                                                                                                                                                                                                                                       
880   G2700700000M                   RLS DISTRIBUTION, IN                                                                                                                                                                                                       
880   G2300800000 13         0000000200927    200927 030                                                                                                                                                                                                        
880   N1 01000000REBLOUNT FINE FOODS CORP             9 0185739490000                                                                                                                                                                                           
880   N3 01200000630 CURRANT ROAD                                                                                                                                                                                                                               
880   N4 01300000FALL RIVER                    MA02720                                                                                                                                                                                                          
880   N1 01000000STMITCHELL GROCERY CORP.             9 1314673500000                                                                                                                                                                                           
880   N3 01200000US 431 - 611 RUBY STREET                                                                                                                                                                                                                       
880   N4 01300000ALBERTVILLE                   AL35950                                                                                                                                                                                                          
880   G170160000000000000048CA2000001901007795869091                                                                                                                                                                                                            
880   G6901700000PANERA BROC CHEDDAR 6/16                                                                                                                                                                                                                       
880   G20019000000000006                                                                                                                                                                                                                                        
880   G170160000000000000024CA2000001901007795869014                                                                                                                                                                                                            
880   G6901700000PANERA BAKED POTATO 6/16                                                                                                                                                                                                                       
880   G20019000000000006                                                                                                                                                                                                                                        
880   G170160000000000000024CA2000001901007795869041                                                                                                                                                                                                            
880   G6901700000PANERA CHICKEN NOODLE 6/16                                                                                                                                                                                                                     
880   G20019000000000006                                                                                                                                                                                                                                        
880   G310250000000000000096CA00000000672LB                                                                                                                                                                                                                     
880   G330260000020000182496                                                                                                                                                                                                                                    
#EOT                                                                                                                                                                                                                                                            
#880 -DATA FROM 009138033                                                                                                                                                                                                                                       
880   00000000000                      GPMITCHELL GROCRYTHE CLOROX SALES COMPANY                                                                                                                                                                                
880   G01002000002008292508998625            20081440185                                                                                                                                                                                                        
880   N9 00300000BM00446008048997922                                                                                                                                                                                                                            
880   G620050000011200829                                                                                                                                                                                                                                       
880   G2700700000H                   CUSTOMER PICKUP                                                                                                                                                                                                            
880   G2300800000013         00000022009150017200915 0172000007312423514936   20003656202               CIB - FOB ORIGIN - UP TO 09/15/2020 YOU RECEIVE 2.000 % DISC                                                                                            
880   G2500900000PB04FAIRBURN GA                                                                                                                                                                                                                                
880   N1 01000000STMITCHELL GROCERY                   9 1314673500000                                                                                                                                                                                           
880   N3 01200000550 RAILROAD AVENUE                                                                                                                                                                                                                            
880   N4 01300000ALBERTVILLE                   AL35950                                                                                                                                                                                                          
880   N1 01000000RETHE CLOROX SALES COMPANY           9 0091380330027                                                                                                                                                                                           
880   N3 01200000PO BOX 75601                                                                                                                                                                                                                                   
880   N4 01300000CHARLOTTE                     NC282755601                                                                                                                                                                                                      
880   G720140000058 02                                                       1-00001292                                                                                                                                                                         
880   G7301500000UNSALEABLES                                                                                                                                                                                                                                    
880   G720140000054 02                                                       2-00055222                                                                                                                                                                         
880   G7301500000CPU ALLOWANCE                                                                                                                                                                                                                                  
880   G170160000000000000034CA2000001254007460905449                                                                                                                                                                                                            
880   G6901700000KCM MRND CLASSTKHS 6/16FO                                                                                                                                                                                                                      
880   G170160000000000000042CA1000000165007110021265                                                                                                                                                                                                            
880   G6901700000BHV SRNCH CLSCRNCH 6/12FO                                                                                                                                                                                                                      
880   G170160000000000000150CA2000001992007110000550                                                                                                                                                                                                            
880   G6901700000BHV ORRNCH 12/8FO                                                                                                                                                                                                                              
880   G170160000000000000304CA2000001728007110000551                                                                                                                                                                                                            
880   G6901700000BHV ORRNCH 6/16FO                                                                                                                                                                                                                              
880   G170160000000000000069CA2000002976007110000438                                                                                                                                                                                                            
880   G6901700000DHV DRSNG MX ORRNCH BM 24/.4OZ                                                                                                                                                                                                                 
880   G170160000000000000023CA2000002976007110021040                                                                                                                                                                                                            
880   G6901700000DHV DRSNGSSNG SPCYRNCH 24/1OZ                                                                                                                                                                                                                  
880   G170160000000000000023CA1000000258007110000528                                                                                                                                                                                                            
880   G6901700000DHV DIP MX ORRNCH 12/2X1OZ                                                                                                                                                                                                                     
880   G170160000000000000096CA1000000516007110000465                                                                                                                                                                                                            
880   G6901700000DHV DRSNGSSNG ORRNCH 24/2X1OZ                                                                                                                                                                                                                  
880   G170160000000000000138CA2000002976007110000443                                                                                                                                                                                                            
880   G6901700000DHV DRSNGSSNG ORRNCH 24/1OZ                                                                                                                                                                                                                    
880   G170160000000000000023CA2000002976007110000670                                                                                                                                                                                                            
880   G6901700000DHV DIP MX FSTARNCH 24/1.1OZ                                                                                                                                                                                                                   
880   G170160000000000000108CA2000000852007460909314                                                                                                                                                                                                            
880   G6901700000KCM BBQ SWTHNYMOL 6/18OZ                                                                                                                                                                                                                       
880   G170160000000000000052CA2000003978001258770359                                                                                                                                                                                                            
880   G6901700000GLAD FF TR DS BLK 30GAL 6/25CT SRU                                                                                                                                                                                                             
880   G170160000000000000080CA2000003978001258770320                                                                                                                                                                                                            
880   G6901700000GLAD FFP TLK DS FCLN OS 13GA 6/34CT                                                                                                                                                                                                            
880   G170160000000000000020CA1000000225001258760031                                                                                                                                                                                                            
880   G6901700000GLAD FRZR ZIP QRT 9/40CT                                                                                                                                                                                                                       
880   G170160000000000000030CA2000003024001258770037                                                                                                                                                                                                            
880   G6901700000GLAD COMP 18GAL 12/4CT                                                                                                                                                                                                                         
880   G170160000000000000020CA2000001824001258755050                                                                                                                                                                                                            
880   G6901700000GLAD FDST ZIP GAL 12/20CT                                                                                                                                                                                                                      
880   G170160000000000000019CA2000001824001258755052                                                                                                                                                                                                            
880   G6901700000GLAD FDST ZIP QRT 12/25CT                                                                                                                                                                                                                      
880   G170160000000000000020CA2000001824001258757034                                                                                                                                                                                                            
880   G6901700000GLAD FRZR ZIP GAL 12/15CT                                                                                                                                                                                                                      
880   G170160000000000000038CA2000001824001258757035                                                                                                                                                                                                            
880   G6901700000GLAD FRZR ZIP QRT 12/20CT                                                                                                                                                                                                                      
880   G170160000000000000050CA2000002652001258760034                                                                                                                                                                                                            
880   G6901700000GLAD TLK QT WHT 13GAL 4/80CT                                                                                                                                                                                                                   
880   G170160000000000000015CA2000003978001258778913                                                                                                                                                                                                            
880   G6901700000GLAD FF KPRODS FRCLNOS 20GAL 6/30CT                                                                                                                                                                                                            
880   G170160000000000000060CA2000002272004129440272                                                                                                                                                                                                            
880   G6901700000PSOL CLNR LAVDRCLNLAV 8/48FO                                                                                                                                                                                                                   
880   G170160000000000000017CA2000002496004460001211                                                                                                                                                                                                            
880   G6901700000409 CRPTCLNR AER 12/22OZ                                                                                                                                                                                                                       
880   G170160000000000000040CA2000000996001650010002                                                                                                                                                                                                            
880   G6901700000SOS SWSPADS 6/10CT                                                                                                                                                                                                                             
880   G170160000000000000024CA2000001336004129491029                                                                                                                                                                                                            
880   G6901700000SOS HVYDTY SCRSP 8/3CT                                                                                                                                                                                                                         
880   G170160000000000000040CA2000000996001650010001                                                                                                                                                                                                            
880   G6901700000SOS SWSPADS LMNFR 6/10CT                                                                                                                                                                                                                       
880   G310250000000000001535UN00000011012LB                                                                                                                                                                                                                     
880   G330260000010000358806                                                                                                                                                                                                                                    
#EOT                                                                                                                                                                                                                                                            
#880 -DATA FROM 4113520000                                                                                                                                                                                                                                      
880   00000000000                      GPMITCHELL GROCRYARIZONA BEVERAGES USA LLC                                                                                                                                                                               
880   G010020000020082990233537              20081437797                                                                                                                                                                                                        
880   G620050000011200831                                                                                                                                                                                                                                       
880   G2300800000011 200829                   200928 030                                                                                                                                                                                                        
880   N1 01000000STMITCHELL GROCERY CORPORATION       9 1314673500000                                                                                                                                                                                           
880   N3 01200000US HWY 431/640 RUBY STREET                                                                                                                                                                                                                     
880   N4 01300000ALBERTVILLE                   AL35950                                                                                                                                                                                                          
880   N1 01000000REARIZONA BEVERAGES USA LLC          9 9649255770000                                                                                                                                                                                           
880   N3 0120000024877 NETWORK PLACE                                                                                                                                                                                                                            
880   N4 01300000CHICAGO                       IL60673                                                                                                                                                                                                          
880   N1 01000000BTMITCHELL GROCERY CORPORATION       9 1314673500000                                                                                                                                                                                           
880   N4 01300000ALBERTVILLE                   AL35950                                                                                                                                                                                                          
880   G72014000005  02                                                       2-00006178                                                                                                                                                                         
880   G7301500000DAMAGE ALLOW % NET                                                                                                                                                                                                                             
880   G170160000000000000050CA2000000936061300873045VN1104094                                                                                                                                                                                                   
880   G6901700000AZ DIET ARNOLD PALMER 4PK GALLON PECO                                                                                                                                                                                                          
880   G170160000000000000050CA2000000936061300872192VN1004096                                                                                                                                                                                                   
880   G6901700000AZ DECAF DIET GREEN TEA 4PK GALLON                                                                                                                                                                                                             
880   G170160000000000000100CA2000000936061300871511VN1104063                                                                                                                                                                                                   
880   G6901700000AZ GREEN TEA 4PK GALLON PECO                                                                                                                                                                                                                   
880   G170160000000000000050CA2000000936061300871780VN1104064                                                                                                                                                                                                   
880   G6901700000AZ DIET GREEN TEA 4PK GALLON PECO                                                                                                                                                                                                              
880   G170160000000000000250CA2000000936061300871980VN1104071                                                                                                                                                                                                   
880   G6901700000AZ SWEET TEA 4PK GALLON PECO                                                                                                                                                                                                                   
880   G170160000000000000050CA2000000936061300872086VN1104095                                                                                                                                                                                                   
880   G6901700000AZ ARNOLD PALMER BLACK 4PK GALLON PECO                                                                                                                                                                                                         
880   G170160000000000000720CA2000000399061300871585VN1101783                                                                                                                                                                                                   
880   G6901700000AZ GREEN TEA 12PK 11.5OZ SUITCASE PECO                                                                                                                                                                                                         
880   G170160000000000000300CA2000000936061300872063VN1004093                                                                                                                                                                                                   
880   G6901700000AZ DIET PEACH GREEN TEA 4PK GALLON                                                                                                                                                                                                             
880   G170160000000000000054CA2000001499061300871527VN1101629                                                                                                                                                                                                   
880   G6901700000AZ GREEN TEA 99C 24PK 23OZ CAN PECO                                                                                                                                                                                                            
880   G170160000000000000180CA2000000399061300872592VN1101780                                                                                                                                                                                                   
880   G6901700000AZ AP BLACK 12PK 11.5OZ SUITCASE PECO                                                                                                                                                                                                          
880   G310250000000000001804CA00000044660LB                                                                                                                                                                                                                     
880   G330260000020001229468                                                                                                                                                                                                                                    
#EOT                                                                                                                                                                                                                                                            
#880 -DATA FROM 4113520000                                                                                                                                                                                                                                      
880   00000000000                      GPMITCHELL GROCRYARIZONA BEVERAGES USA LLC                                                                                                                                                                               
880   G010020000020082990233538              20081437796                                                                                                                                                                                                        
880   G620050000011200831                                                                                                                                                                                                                                       
880   G2300800000011 200829                   200928 030                                                                                                                                                                                                        
880   N1 01000000STMITCHELL GROCERY CORPORATION       9 1314673500000                                                                                                                                                                                           
880   N3 01200000US HWY 431/640 RUBY STREET                                                                                                                                                                                                                     
880   N4 01300000ALBERTVILLE                   AL35950                                                                                                                                                                                                          
880   N1 01000000REARIZONA BEVERAGES USA LLC          9 9649255770000                                                                                                                                                                                           
880   N3 0120000024877 NETWORK PLACE                                                                                                                                                                                                                            
880   N4 01300000CHICAGO                       IL60673                                                                                                                                                                                                          
880   N1 01000000BTMITCHELL GROCERY CORPORATION       9 1314673500000                                                                                                                                                                                           
880   N4 01300000ALBERTVILLE                   AL35950                                                                                                                                                                                                          
880   G72014000005  02                                                       2-00005757                                                                                                                                                                         
880   G7301500000DAMAGE ALLOW % NET                                                                                                                                                                                                                             
880   G170160000000000000100CA2000000936061300873045VN1104094                                                                                                                                                                                                   
880   G6901700000AZ DIET ARNOLD PALMER 4PK GALLON PECO                                                                                                                                                                                                          
880   G170160000000000000150CA2000000936061300872192VN1004096                                                                                                                                                                                                   
880   G6901700000AZ DECAF DIET GREEN TEA 4PK GALLON                                                                                                                                                                                                             
880   G170160000000000000350CA2000000936061300871511VN1104063                                                                                                                                                                                                   
880   G6901700000AZ GREEN TEA 4PK GALLON PECO                                                                                                                                                                                                                   
880   G170160000000000000200CA2000000936061300871780VN1104064                                                                                                                                                                                                   
880   G6901700000AZ DIET GREEN TEA 4PK GALLON PECO                                                                                                                                                                                                              
880   G170160000000000000200CA2000000936061300872086VN1104095                                                                                                                                                                                                   
880   G6901700000AZ ARNOLD PALMER BLACK 4PK GALLON PECO                                                                                                                                                                                                         
880   G170160000000000000360CA2000000399061300872592VN1101780                                                                                                                                                                                                   
880   G6901700000AZ AP BLACK 12PK 11.5OZ SUITCASE PECO                                                                                                                                                                                                          
880   G170160000000000000180CA2000000399061300872815VN1001781                                                                                                                                                                                                   
880   G6901700000AZ SWEET TEA 12PK 11.5OZ CAN SUITCASE                                                                                                                                                                                                          
880   G310250000000000001540CA00000044739LB                                                                                                                                                                                                                     
880   G330260000020001145703                                                                                                                                                                                                                                    
#EOT                                                                                                                                                                                                                                                            
#880 -DATA FROM 2054244284                                                                                                                                                                                                                                      
880   00000000000                      GPMITCHELL GROCRY                                                                                                                                                                                                        
880   G0100200000200828INV081314             20082272208                                                                                                                                                                                                        
880   G620050000011200828                                                                                                                                                                                                                                       
880   G2700700000T                   BESSEMER                                                                                                                                                                                                                   
880   G2300800000011                                 015                                                                                                                                                                                                        
880   G2500900000PB01BESSEMER                                                                                                                                                                                                                                   
880   N1 01000000STMITCHELL GROCERY                   9 1314673500000                                                                                                                                                                                           
880   N3 01200000550 RAILROAD AVENUE                                                                                                                                                                                                                            
880   N4 01300000ALBERTVILLE                   AL35950                                                                                                                                                                                                          
880   N1 01000000BTMITCHELL GROCERY                                                                                                                                                                                                                             
880   N3 01200000P.O. BOX 370                                                                                                                                                                                                                                   
880   N4 01300000ALBERTVILLE                   AL35950                                                                                                                                                                                                          
880   G720140000054 02                                                       0000000288                                                                                                                                                                         
880   G720140000095 02                                                       2000007524                                                                                                                                                                         
880   G170160000000000000900CA2000000836009147551100BP60845                         VN60000                                       CA                                                                                                                            
880   G6901700000BOXED SWEET GALLON                                                                                                                                                                                                                             
880   G310250000000000000900CA                                                                                                                                                                                                                                  
880   G330260000020000716076                                                                                                                                                                                                                                    
#EOT                                                                                                                                                                                                                                                            
#880 -DATA FROM 2054244284                                                                                                                                                                                                                                      
880   00000000000                      GPMITCHELL GROCRY                                                                                                                                                                                                        
880   G0100200000200828INV081315             20082272206                                                                                                                                                                                                        
880   G620050000011200828                                                                                                                                                                                                                                       
880   G2700700000T                   BESSEMER                                                                                                                                                                                                                   
880   G2300800000011                                 015                                                                                                                                                                                                        
880   G2500900000PB01BESSEMER                                                                                                                                                                                                                                   
880   N1 01000000STMITCHELL GROCERY                   9 1314673500000                                                                                                                                                                                           
880   N3 01200000550 RAILROAD AVENUE                                                                                                                                                                                                                            
880   N4 01300000ALBERTVILLE                   AL35950                                                                                                                                                                                                          
880   N1 01000000BTMITCHELL GROCERY                                                                                                                                                                                                                             
880   N3 01200000P.O. BOX 370                                                                                                                                                                                                                                   
880   N4 01300000ALBERTVILLE                   AL35950                                                                                                                                                                                                          
880   G720140000054 02                                                       0000000288                                                                                                                                                                         
880   G720140000095 02                                                       2000007524                                                                                                                                                                         
880   G170160000000000000900CA2000000836009147551100BP60845                         VN60000                                       CA                                                                                                                            
880   G6901700000BOXED SWEET GALLON                                                                                                                                                                                                                             
880   G310250000000000000900CA                                                                                                                                                                                                                                  
880   G330260000020000716076                                                                                                                                                                                                                                    
#EOT                                                                                                                                                                                                                                                            
#880 -DATA FROM 2054244284                                                                                                                                                                                                                                      
880   00000000000                      GPMITCHELL GROCRY                                                                                                                                                                                                        
880   G0100200000200829INV081365             20082372201                                                                                                                                                                                                        
880   G620050000011200829                                                                                                                                                                                                                                       
880   G2700700000T                   BESSEMER                                                                                                                                                                                                                   
880   G2300800000011                                 015                                                                                                                                                                                                        
880   G2500900000PB01BESSEMER                                                                                                                                                                                                                                   
880   N1 01000000STMITCHELL GROCERY                   9 1314673500000                                                                                                                                                                                           
880   N3 01200000550 RAILROAD AVENUE                                                                                                                                                                                                                            
880   N4 01300000ALBERTVILLE                   AL35950                                                                                                                                                                                                          
880   N1 01000000BTMITCHELL GROCERY                                                                                                                                                                                                                             
880   N3 01200000P.O. BOX 370                                                                                                                                                                                                                                   
880   N4 01300000ALBERTVILLE                   AL35950                                                                                                                                                                                                          
880   G720140000054 02                                                       2000028224                                                                                                                                                                         
880   G720140000095 02                                                       2000009195                                                                                                                                                                         
880   G170160000000000000032CA2000000864009147553300BP60832                         VN63000                                       CA                                                                                                                            
880   G6901700000LEMONADE 20OZ                                                                                                                                                                                                                                  
880   G170160000000000000315CA2000000836009147551300BP60846                         VN60005                                       CA                                                                                                                            
880   G6901700000BOXED UNSWEET GALLON                                                                                                                                                                                                                           
880   G170160000000000000320CA2000000864009147553100BP60848                         VN62010                                       CA                                                                                                                            
880   G6901700000SWEET 20 OZ                                                                                                                                                                                                                                    
880   G170160000000000000048CA2000000864009147553200BP60851                         VN62015                                       CA                                                                                                                            
880   G6901700000SPLENDA 20 OZ                                                                                                                                                                                                                                  
880   G170160000000000000135CA2000000836009147552100BP60856                         VN60500                                       CA                                                                                                                            
880   G6901700000BOXED DECAF SWEET TEA GALLON                                                                                                                                                                                                                   
880   G170160000000000000090CA2000000868009147551900BP60857                         VN61000                                       CA                                                                                                                            
880   G6901700000BOXED LEMONADE GALLON                                                                                                                                                                                                                          
880   G170160000000000000090CA2000000868009147552000BP60858                         VN61005                                       CA                                                                                                                            
880   G6901700000BOXED TEA & LEMONADE GALLON                                                                                                                                                                                                                    
880   G170160000000000000048CA2000000864009147553400BP60893                         VN63005                                       CA                                                                                                                            
880   G6901700000TEA & LEMONADE 20OZ                                                                                                                                                                                                                            
880   G310250000000000001078CA                                                                                                                                                                                                                                  
880   G330260000020000882093                                                                                                                                                                                                                                    
#EOT                                                                                                                                                                                                                                                            
#880 -DATA FROM 2054244284                                                                                                                                                                                                                                      
880   00000000000                      GPMITCHELL GROCRY                                                                                                                                                                                                        
880   G0100200000200829INV081366             20082372299                                                                                                                                                                                                        
880   G620050000011200829                                                                                                                                                                                                                                       
880   G2700700000T                   BESSEMER                                                                                                                                                                                                                   
880   G2300800000011                                 015                                                                                                                                                                                                        
880   G2500900000PB01BESSEMER                                                                                                                                                                                                                                   
880   N1 01000000STMITCHELL GROCERY                   9 1314673500000                                                                                                                                                                                           
880   N3 01200000550 RAILROAD AVENUE                                                                                                                                                                                                                            
880   N4 01300000ALBERTVILLE                   AL35950                                                                                                                                                                                                          
880   N1 01000000BTMITCHELL GROCERY                                                                                                                                                                                                                             
880   N3 01200000P.O. BOX 370                                                                                                                                                                                                                                   
880   N4 01300000ALBERTVILLE                   AL35950                                                                                                                                                                                                          
880   G720140000054 02                                                       2000029376                                                                                                                                                                         
880   G720140000095 02                                                       2000009433                                                                                                                                                                         
880   G170160000000000000032CA2000000864009147553300BP60832                         VN63000                                       CA                                                                                                                            
880   G6901700000LEMONADE 20OZ                                                                                                                                                                                                                                  
880   G170160000000000000360CA2000000836009147551300BP60846                         VN60005                                       CA                                                                                                                            
880   G6901700000BOXED UNSWEET GALLON                                                                                                                                                                                                                           
880   G170160000000000000320CA2000000864009147553100BP60848                         VN62010                                       CA                                                                                                                            
880   G6901700000SWEET 20 OZ                                                                                                                                                                                                                                    
880   G170160000000000000048CA2000000864009147553200BP60851                         VN62015                                       CA                                                                                                                            
880   G6901700000SPLENDA 20 OZ                                                                                                                                                                                                                                  
880   G170160000000000000135CA2000000836009147552100BP60856                         VN60500                                       CA                                                                                                                            
880   G6901700000BOXED DECAF SWEET TEA GALLON                                                                                                                                                                                                                   
880   G170160000000000000090CA2000000868009147551900BP60857                         VN61000                                       CA                                                                                                                            
880   G6901700000BOXED LEMONADE GALLON                                                                                                                                                                                                                          
880   G170160000000000000090CA2000000868009147552000BP60858                         VN61005                                       CA                                                                                                                            
880   G6901700000BOXED TEA & LEMONADE GALLON                                                                                                                                                                                                                    
880   G170160000000000000032CA2000000864009147553400BP60893                         VN63005                                       CA                                                                                                                            
880   G6901700000TEA & LEMONADE 20OZ                                                                                                                                                                                                                            
880   G310250000000000001107CA                                                                                                                                                                                                                                  
880   G330260000020000904499                                                                                                                                                                                                                                    
#EOT                                                                                                                                                                                                                                                            
